:100000000C942D000C9445020C9445020C9445026E
:100010000C9445020C9445020C9445020C94450244
:100020000C9445020C9445020C9445020C94450234
:100030000C9445020C94C5010C9445020C944502A5
:100040000C9445020C9445020C9445020C94450214
:100050000C94450200600061800011241FBECFE5B2
:10006000D8E0DEBFCDBFE4E5F0E040E017C0B591D9
:10007000A59135912591059107FD0CC0959185912C
:10008000EF01F92FE82F05900D92A217B307D9F7CA
:10009000FE0104C01D92A217B307E1F7E935F4078A
:0E00A00031F70E9424020C945500F894FFCF13
:1000AE00811159C0611109C0442319F0413019F072
:1000BE000895D0980895D09A0895613049F4442354
:1000CE0019F0413019F00895D1980895D19A0895F4
:1000DE00623049F4442319F0413019F00895D29852
:1000EE000895D29A0895633049F4442319F04130AB
:1000FE0019F00895D3980895D39A0895643049F469
:10010E00442319F0413019F00895D4980895D49AE3
:10011E000895653049F4442319F0413019F00895DB
:10012E00D5980895D59A0895663049F4442319F068
:10013E00413019F00895D6980895D69A08956730EB
:10014E0009F01BC1442319F0413019F00895D798D6
:10015E000895D79A0895813009F059C0611109C0E8
:10016E00442319F0413019F00895B8980895B89ABB
:10017E000895613049F4442319F0413019F008957F
:10018E00B9980895B99A0895623049F4442319F044
:10019E00413019F00895BA980895BA9A08956330C7
:1001AE0049F4442319F0413019F00895BB9808958D
:1001BE00BB9A0895643049F4442319F0413019F084
:1001CE000895BC980895BC9A0895653049F4442367
:1001DE0019F0413019F00895BD980895BD9A08950B
:1001EE00663049F4442319F0413019F00895BE9851
:1001FE000895BE9A0895673009F0BFC0442319F0E0
:10020E00413019F00895BF980895BF9A089582302D
:10021E0009F059C0611109C0442319F0413019F099
:10022E000895A0980895A09A0895613049F4442342
:10023E0019F0413019F00895A1980895A19A0895E2
:10024E00623049F4442319F0413019F00895A29810
:10025E000895A29A0895633049F4442319F0413069
:10026E0019F00895A3980895A39A0895643049F457
:10027E00442319F0413019F00895A4980895A49AD2
:10028E000895653049F4442319F0413019F008956A
:10029E00A5980895A59A0895663049F4442319F057
:1002AE00413019F00895A6980895A69A08956730DA
:1002BE0009F063C0442319F0413019F00895A7984E
:1002CE000895A79A0895833009F057C0611109C0A7
:1002DE00442319F0413019F0089588980895889AAA
:1002EE000895613049F4442319F0413019F008950E
:1002FE0089980895899A0895623049F4442319F033
:10030E00413019F008958A9808958A9A08956330B5
:10031E0049F4442319F0413019F008958B9808954B
:10032E008B9A0895643049F4442319F0413019F042
:10033E0008958C9808958C9A0895653049F4442355
:10034E0019F0413019F008958D9808958D9A0895F9
:10035E00663049F4442319F0413019F008958E980F
:10036E0008958E9A0895673041F4442319F0413070
:0C037E0019F008958F9808958F9A089543
:10038A001F920F920FB60F9211242F933F934F9300
:10039A005F936F937F938F939F93AF93BF93EF93E3
:1003AA00FF938CB1809360005F99FECF90E00E942A
:1003BA004102809160008F3411F4D89A03C08334CB
:1003CA0009F4D898FF91EF91BF91AF919F918F91C6
:1003DA007F916F915F914F913F912F910F900FBE37
:0603EA000F901F90189512
:1003F0000F9397E699B9882321F0813019F4549A24
:1004000001C05498662321F0613019F4539A01C059
:100410005398442321F0413019F4579A01C057985A
:10042000222321F0213019F4569A01C05698002356
:1004300031F0013039F480B5806C80BD03C080B5E7
:080440008F7380BD0F91089538
:1004480041E060E080E00E94570078940E94390201
:1004580000E010E020E030E041E050E060E070E0D3
:0A04680081E090E00E94F801FFCF50
:1004720087B3806B87BBBE988DB183658DB90895B4
:080482008FB9779BFECF0895AE
:04048A000C940000CE
:00000001FF
