:100000000C942A000C947C000C947C000C947C00D2
:100010000C947C000C947C000C947C000C947C0070
:100020000C947C000C947C000C947C000C947C0060
:100030000C9436000C947C000C947C000C947C0096
:100040000C947C000C947C000C947C000C947C0040
:100050000C947C0011241FBECFE5D8E0DEBFCDBFDD
:0C0060000E9472000C943400F894FFCF52
:10006C001F920F920FB60F9211242F933F934F9321
:10007C005F936F937F938F939F93AF93BF93EF9304
:10008C00FF930E9478008F3411F4D89A0BC08334FC
:10009C0011F4D89807C08D3411F4A89A03C08E348B
:1000AC0009F4A898FF91EF91BF91AF919F918F9117
:1000BC007F916F915F914F913F912F910F900FBE58
:0600CC000F901F90189533
:1000D200BE9ABC98BD98BF988DB1836C8DB96C984F
:0200E20008957F
:0C00E40078940E946900D09AA09AFFCF87
:0800F000779BFECF8FB108954C
:0400F8000C94000064
:00000001FF
